:020000040800F2
:1000000028460020610200088F1E0008F91B000826
:100010008D1E0008E50800083124000800000000DB
:10002000000000000000000000000000A101000826
:100030004109000800000000FD010008151F00082C
:100040007B0200087B0200087B0200087B0200089C
:100050007B0200087B0200087B0200087B0200088C
:100060007B0200087B0200087B0200087B0200087C
:100070007B0200087B0200087B0200087B0200086C
:100080007B0200087B0200087B0200087B0200085C
:100090007B0200087B0200087B0200087B0200084C
:1000A0007B0200087B0200087B0200087B0200083C
:1000B000E11F00087B0200087B0200087B020008A9
:1000C0007B0200087B0200087B0200087B0200081C
:1000D0007B020008DD2300087B0200087B02000889
:1000E0007B0200087B0200087B0200087B020008FC
:1000F0007B0200087B0200087B0200087B020008EC
:100100007B0200087B0200087B0200087B020008DB
:100110007B0200087B0200087B020008ED1F00083C
:100120007B0200087B0200087B0200087B020008BB
:100130007B0200087B0200087B0200087B020008AB
:100140007B0200087B0200087B0200087B0200089B
:100150007B0200087B0200087B02000825240008BF
:100160007B0200087B0200087B0200087B0200087B
:100170007B0200087B0200087B02000800000000F0
:100180007B0200087B020008DFF810D000F098FB2B
:1001900000480047492D0008AFF3008028460020A2
:1001A0002C4B19680868B0E8F04F80F30988BFF35A
:1001B0006F8F4FF0000080F311887047000000003F
:1001C00008480068006880F308884FF0000080F35A
:1001D000148862B661B6BFF34F8FBFF36F8F00DF35
:1001E00000BF00BF08ED00E0DFF80C00016841F43B
:1001F00070010160704700BF88ED00E0EFF30980F7
:10020000BFF36F8F134B1A681EF0100F08BF20ED5D
:10021000108A20E9F04F106009B44FF0500080F3CD
:100220001188BFF34F8FBFF36F8F03F055F94FF075
:10023000000080F3118809BC19680868B0E8F04F25
:100240001EF0100F08BFB0EC108A80F30988BFF3CE
:100250006F8F704720000020EFF30580704700008B
:100260000648804706480047FEE7FEE7FEE7FEE750
:10027000FEE7FEE7FEE7FEE7FEE7FEE7D11F000828
:10028000890100082DE9F05F0546002092469B4653
:1002900088460646814640241BE02846414647469C
:1002A000224600F046F953465A46C01A914110D3EF
:1002B00011461846224600F02DF92D1A67EB010869
:1002C0004F4622460120002100F024F917EB0009D7
:1002D0004E41201EA4F10104DFDC484631462A4687
:1002E0004346BDE8F09F40EA01039B0703D009E0C5
:1002F00008C9121F08C0042AFAD203E011F8013B12
:1003000000F8013B521EF9D27047D2B201E000F86A
:10031000012B491EFBD270470022F6E710B51346A9
:100320000A4604461946FFF7F0FF204610BD421C5E
:1003300010F8011B0029FBD1801A70472DE9FE4FF0
:10034000804681EA0300C00F0C46009021F0004176
:1003500023F00045B8EB0200A94105D240462146F2
:1003600090461C460B46024623F00040104347D0FF
:10037000270DC7F30A00C3F30A510290401A0190F7
:1003800040286BDAC3F3130040F4801B00989246B8
:1003900020B10023D2EB030A63EB0B0B0198594603
:1003A000C0F14002504600F0B5F806460D465046F2
:1003B0005946019A00F0CDF810EB08006141002485
:1003C00087EA115284EAE7731A4340D0009A62B375
:1003D000019A012A4FEA075215DC001B61EB02016A
:1003E0004FF0004202EA0752CDE90042001C41F5FD
:1003F000801132462B4600F004F903B0BDE8F08FBF
:1004000040462146F9E7001B61EB0201001C41F563
:10041000801300185B412018A2F5001747EB030179
:1004200040EAD570B6196D4111E06D084FEA360605
:1004300045EAC0754FEA0752001B61EB0201001C40
:1004400041F5801149084FEA300000195141324608
:100450002B4603B0BDE8F04F00F0C4B8009801226D
:1004600040000023D0EB020263EBE07300982146CA
:100470004FEAE074B8EB000061EB0401E9E783F0B8
:1004800000435BE781F0004158E700F0004230F0A4
:1004900000400AD0C10D01F56071C0F3160042EAB8
:1004A0000151C208400711437047002001467047C0
:1004B00001F0004330B421F0004150EA010206D0BF
:1004C0000A0DA2F56072C1F31301002A02DC30BCF0
:1004D00000207047440F44EAC104C100E01830BC5A
:1004E00000EBC25000F047B830B50B460146002083
:1004F0002022012409E021FA02F59D4205D303FAE6
:1005000002F5491B04FA02F52844151EA2F1010266
:10051000F1DC30BD202A04DB203A00FA02F1002091
:1005200070479140C2F1200320FA03F31943904031
:100530007047202A04DB203A21FA02F0002170479C
:1005400021FA02F3D040C2F120029140084319463B
:100550007047202A06DBCB17203A41FA02F043EA23
:10056000E07306E041FA02F3D040C2F1200291406C
:100570000843194670470029A8BF7047401C49002E
:1005800008BF20F00100704710B4B0FA80FC00FAF8
:100590000CF050EA010404BF10BC704749B1CCF123
:1005A000200421FA04F411FA0CF118BF01212143AF
:1005B0000843A3EB0C01CB1D4FEA00614FEA10206A
:1005C00042BF002010BC704700EBC350104400290C
:1005D000A4BF10BC7047401C490008BF20F00100B8
:1005E00010BC704710B5141E73F1000408DA401CEB
:1005F00041F1000192185B411A4301D120F0010042
:1006000010BD2DE9F04D92469B4611B1B1FA81F231
:1006100002E0B0FA80F220329046FFF77BFF0446FA
:100620000F4640EA0A0041EA0B0153465A46084386
:1006300013D0114653EA010019D0C8F140025046C8
:10064000FFF777FF05460E46504659464246FFF7EC
:1006500061FF084305D0012004E020463946BDE88B
:10066000F08D0020054346EAE0762C4337430A9894
:100670006305E40AA0EB08000022FD0A44EA47549F
:100680000A3002D500200146E9E701051019694149
:10069000DDE9084500196941BDE8F04DA2E72DE903
:1006A000FE4F81EA030404F0004421F0004100946D
:1006B0004FF0000B23F0004350EA01045ED052EAF1
:1006C00003045BD0C3F30A54C1F30A552C44A4F2CB
:1006D000F3340194A0FB0254C1F3130141F48011DF
:1006E000C3F3130343F4801301FB024400FB034EE6
:1006F000840A970A44EA815447EA8357A4FB0768AF
:1007000002958D0A05FB07854FEA932C04FB0C54D8
:100710002705029D4FEA065847EA1637B5EB08054C
:100720006EEB070C870E920E47EA811742EA83129E
:10073000A7FB0201B6EB0B0164EB00042B0D43EAAF
:100740000C335E1844EB1C50DA465146E7FB0201BD
:10075000C5F313044FEA0B3343EA14534FEA043250
:10076000019C43EA0603A4F10C040294009CCDE929
:1007700000B4FFF746FF03B0BDE8F08F002001464C
:10078000F9E72DE9F04D81EA030404F0004B21F074
:10079000004514464FF0000A23F0004150EA0502DC
:1007A00020D054EA01021DD0C5F30A570246C5F312
:1007B0001303C1F31300C1F30A5640F4801543F448
:1007C0008013A7EB0608101BD64608F2FD3873EB22
:1007D000050002D308F1010801E092185B41B8F16D
:1007E000000F03DA00200146BDE8F08D00204FF431
:1007F0008011064684460EE0171B73EB050705D3F0
:10080000121B63EB050306434CEA010C49084FEA4F
:10081000300092185B4150EA0107EDD152EA030023
:1008200012D082EA040083EA0501084305D0101BB8
:10083000AB4106D20122002306E000224FF0004324
:1008400002E06FF0010253101AEB06004CEB085166
:1008500010EB0A0041EB0B01BDE8F04DFFF7C2BE03
:10086000C1F30A52C1F3130140F2FF3341F4801186
:100870009A4202DA00200146704740F233439A421E
:10088000A2F2334202DC5242FFF753BEFFF742BEF0
:1008900030B5041E71F1000404DB4FF00044404207
:1008A00064EB0101141E73F1000405DB1C464FF0DC
:1008B0000043524263EB0403994208BF904230BDAB
:1008C000064C074D06E0E06840F0010394E807009D
:1008D00098471034AC42F6D3FFF75AFC2839000889
:1008E00048390008FEE7000070B5134C0025134896
:1008F000217801290DD06178012910D0A178012932
:1009000013D0E178012903D1002200F0D4F9E57079
:1009100070BD0122022100F0CEF9257070BD0022C9
:10092000022100F0C8F9657070BD0122114600F087
:10093000C2F9A57070BD00008800002000180240B8
:100940007047000010B5164C6068FFF79EFD41EC43
:10095000100B14A153EC102B184801F077FD174829
:10096000FFF7E5FC81B2154802F07EFC012000F0A3
:100970008BF86068FFF789FD9FED111B53EC112B7D
:10098000FFF7DCFCFFF794FD0F496060884205DB50
:10099000B7EE000A84ED010A0020207010BD0000AF
:1009A0008C00002077736574206E756D54662E760A
:1009B000616C6620252E32660D0A0000C0410020C1
:1009C0006666666666660240CDCCF44172B6FEE7A6
:1009D0002DE9F0410446876D00F072F9064694F85F
:1009E00035000025022806D08020606584F8345048
:1009F0000120BDE8F0812068016821F01601016046
:100A00002068416921F080014161206C08B9A06C27
:100A100020B12068016821F00801016020680168A8
:100A200021F0010101600CE000F04AF9801B05286B
:100A300007D920206065032084F8350084F83450FD
:100A4000D7E720680068C007EED194F85C103F201B
:100A50008840B860012084F8350084F834500020C4
:100A6000C7E790F83510022903D0802141650120A5
:100A70007047052180F835100068016821F00101F8
:100A8000016000207047000070B5044600F018F9BE
:100A90000546601C02D004480078044400F010F9B8
:100AA000401BA042FAD370BD100000202DE9F84F82
:100AB000DFF8BCA10022012503264FF00F090AF13F
:100AC000040BAAF1040E00BF0B6805FA02F42340E0
:100AD000A34270D10F7907F00307012F01D0022F35
:100AE00016D187684FEA420806FA08FC27EA0C0785
:100AF000D1F80CC00CFA08FC4CEA070CC0F808C08E
:100B00004768A7430C79C4F3001494403C43446005
:100B10000C79E443A4070AD0C4684FEA420C06FAF1
:100B20000CF7BC438F6807FA0CF72743C7600C79B2
:100B300004F00304022C12D1D40800EB840CDCF87E
:100B400020405707FF0E09FA07F824EA0804D1F8F5
:100B5000108008FA07F848EA0408CCF820800468F6
:100B60004FEA420C06FA0CF7BC430F7907F0030773
:100B700007FA0CF7274307604C6814F4403F70D025
:100B80003C4C276847F480472760246822F003071D
:100B900004F480440094384C07EB040CDCF808485B
:100BA00097074FEA177809FA08F7BC43334FB84262
:100BB00002D1002724E054E0314FB84201D101278F
:100BC0001EE0304FB84201D1022719E02E4FB84243
:100BD00001D1032714E02D4FB84201D104270FE0C3
:100BE0002B4FB84201D105270AE02A4FB84201D164
:100BF000062705E0284FB84201D1072700E0082763
:100C000007FA08F72743CCF80878DAF80040574687
:100C1000D1F804C09C435FEACC2C00D51C433C6057
:100C2000DBF800405F46D1F804C09C435FEA8C2C9F
:100C300000D51C433C60DEF800407746D1F804C084
:100C40009C435FEA8C3C00D51C433C60084F083F46
:100C50003C68D1F804C09C435FEACC3C00D51C43FF
:100C60003C60521C102AFFF42FAFBDE8F88F000043
:100C7000083C01404438024000300140000002407E
:100C80000004024000080240000C02400010024034
:100C90000014024000180240001C02400069084095
:100CA00000D001207047426921EA02030A4043EA6A
:100CB0000241816170470AB1816170470904FBE715
:100CC00001488068704700001000002002488168D9
:100CD0000278114481607047100000200B4810B565
:100CE000016841F400710160016841F480610160B4
:100CF000016841F480710160032000F09FF80F202B
:100D000000F006F800F050F8002010BD003C024052
:100D100030B505461F4887B00024016841F0200126
:100D20000160006806A900F02000009001A800F012
:100D300031F90498A8B100F04DF940001649174A5E
:100D4000B0FBF1F11648491E026040F2E732C0E9FB
:100D50000324C0E90114846100F08CFB040003D07B
:100D600015E000F037F9E9E70D4800F0CDFB04008D
:100D70000DD1372000F034F8102D07D2002229467B
:100D8000372000F03BF80748056000E0012407B079
:100D9000204630BD4038024040420F000014004061
:100DA00088040020140000200C4882B0016841F43F
:100DB00080410160006800F4804000900748001FF7
:100DC000016841F0805101600068002200F080500D
:100DD00000900F21901E02B000F010B8443802407D
:100DE000002809DB00F01F0201219140400980002A
:100DF00000F1E020C0F8001170470000F0B40E4B85
:100E00001B680C46C3F30223C3F10705042D00D968
:100E10000425191D072901D2002300E0DB1E01264D
:100E200006FA05F1491E214099409E40761E164063
:100E30003143F0BC01F01EBB0CED00E0064900F0B0
:100E4000070208684FF6FF03184040EA0220034AF1
:100E500010430860704700000CED00E00000FA0548
:100E60002DE9F0470E46050065D0DFF81481D8F86B
:100E70000000F7B200F00700B04207D288F8007017
:100E8000D8F8000000F00700B04254D128683D4C6B
:100E9000810712D5400703D5206840F4E050206058
:100EA0002878000703D5206840F46040206020685F
:100EB000A96820F0F000084320602878C0072DD0F2
:100EC000304968680839012812D0022813D0032855
:100ED00011D00968890700292DDA216821F0030162
:100EE00001432160FFF7ECFE814641F2883A0EE0B3
:100EF00009688903EFE709688901ECE7FFF7E0FE7D
:100F0000A0EB0901514502D90320BDE8F087206814
:100F1000696800F00C00B0EB810FEFD1D8F8001039
:100F2000404601F00701B14207D90770006800F0A0
:100F30000700B04201D00120E7E72878400705D537
:100F40002068E96820F4E050084320602878000712
:100F500006D52068296920F4604040EAC10020607D
:100F600000F058F82168084AC1F30311515CC840E9
:100F70000649086006480068FFF7CAFE0020C4E77B
:100F8000003C024008380240D83800081C0000200D
:100F9000140000200F2202600C4A136803F00303C0
:100FA0004360136803F0F0038360136803F4E053B5
:100FB000C36012684FF4E05303EAD20202610448AE
:100FC000006800F007000860704700000838024021
:100FD000003C02400448054900680968044AC1F31E
:100FE0008221515CC84070471C0000200838024034
:100FF000E83800080448054900680968044AC1F354
:101000004231515CC84070471C0000200838024043
:10101000E8380008154810B5006810F00C021448B4
:1010200013D04110042A0FD0082A0ED10F4C241FD0
:101030002268236802F03F025B0207D52068C0F3F4
:101040008810A0FB010106E0084610BD2168C1F32D
:101050008811A1FB00010023FFF714F92168C1F3F7
:101060000141491C4900B0FBF1F010BD08380240B5
:101070000024F4002DE9F84F04006ED02078DFF84A
:101080004C93C007A9F104054AD009F10400016896
:10109000C1F38101012908D00068C0F38100022852
:1010A0000AD1D9F80000400206D52868800337D558
:1010B00060680028E1D033E06068B0F5803F10D070
:1010C000B0F5A02F286810D020F480302860286860
:1010D00020F4802028606068A8B1FFF7F1FD064683
:1010E0000DE0286840F48030F4E740F48020286068
:1010F000F7E700BFFFF7E4FD801B642873D828687A
:101100008003F7D50CE0FFF7DBFD064605E000BFE6
:10111000FFF7D6FD801B6428F0D828688003F7D439
:101120002078DFF8AC8280074FF0000A3ED5A74850
:10113000001D016811F00C0F08D00068C0F3810099
:1011400002280BD1D9F80000400207D42868800794
:1011500016D5E068012800D112E033E1E068B8B1AB
:101160000120C8F80000FFF7ABFD064605E000BF10
:10117000FFF7A6FD801B0228C0D828688007F7D596
:101180002868216920F0F80040EAC10028600DE0DD
:10119000C8F800A0FFF794FD064604E0FFF790FDB5
:1011A000801B02281FD828688007F7D42078000702
:1011B00022D5864F87486169703771B1012101607E
:1011C000FFF77EFD064604E0FFF77AFD801B02284C
:1011D00009D838688007F7D50EE0C0F800A0FFF7FF
:1011E0006FFD064605E082E0FFF76AFD801B0228DE
:1011F0007DD838688007F7D42078400768D5DFF8B5
:10120000CCB100270BF13C0BDBF80000C0000BD485
:10121000DBF8001041F08051CBF80010DBF8000043
:10122000012700F0805000906B4E3068C00510D44C
:10123000306840F480703060FFF742FD009005E0B8
:10124000FFF73EFD0099401A022850D83068C005CB
:10125000F6D55E4EA0686C3601280FD005283068A0
:1012600010D020F001003060306820F004003060C1
:10127000A068B8B1FFF724FD00900FE0306840F09F
:101280000100F4E740F004003060F7E7FFF718FDD5
:101290000099411A41F28830814266D8306880074F
:1012A000F4D50EE0FFF70CFD009007E0FFF708FD16
:1012B0000099411A41F28830814256D8306880073F
:1012C000F4D42FB1DBF8001021F08051CBF80010DE
:1012D000A069C8B33D49091D0968C1F3810102290C
:1012E0004AD00228504607D0C8F8600000E03CE031
:1012F000FFF7E6FC04463BE04746C8F86000FFF70E
:10130000DFFC064605E000BFFFF7DAFC801B022881
:101310002BD828688001F7D4D4E907010843A16AD3
:101320002E4A490802EB0141626A41EA82110843F0
:1013300094F82C1040EA0161C9F8001001203866C9
:10134000FFF7BEFC044606E03EE000BFFFF7B8FC36
:10135000001B022809D828688001F7D534E000BFB7
:10136000FFF7AEFC001B022802D90320BDE8F88F6E
:1013700028688001F4D427E00128F7D0D9F80000CC
:10138000E26900F4800191421CD1226A00F03F0121
:10139000914217D147F6C071626A0140B1EB821FDA
:1013A00010D1A26A4FF0FF3300F4403103EB520238
:1013B000B1EB024F06D194F82C1000F07060B0EB46
:1013C000016F01D00120D1E70020CFE704380240AF
:1013D00000004742800E4742007000400000FFFFBF
:1013E0007047704770B590F83C20012A32D0012434
:1013F00080F83C40022280F83D2003685A689D68CE
:1014000022F070060A6832435A60134B02689A420F
:1014100014D0B2F1804F11D0104B9A420ED0104B25
:101420009A420BD00F4B9A4208D00F4B9A4205D0EC
:101430000E4B9A4202D00E4B9A4204D1496825F0D5
:1014400080031943916080F83D40002180F83C10F2
:10145000084670BD022070BD00000140000400403D
:1014600000080040000C0040000401400040014022
:101470000018004010B5040003D094F83D0010B1EE
:1014800007E0012010BD002084F83C00204600F059
:101490001FF8022084F83D00211D206800F0ACFDFB
:1014A000012084F8460084F83E0084F83F0084F868
:1014B000400084F8410084F8420084F8430084F836
:1014C000440084F8450084F83D00002010BD000071
:1014D00008B50068B0F1804F12D10A48016841F0A8
:1014E000010101600068002200F001000090052168
:1014F0001C20FFF783FCBDE808401C20FFF770BCF0
:1015000008BD00004038024090F83D10012901D08C
:1015100001207047022180F83D100168CA6842F03E
:101520000102CA6000681149884214D0B0F1804FAE
:1015300011D00F4988420ED00E4988420BD00E4977
:10154000884208D00D49884205D00D49884202D012
:101550000C49884204D1816801F00701062903D0B3
:10156000016841F001010160002070470000014066
:101570000004004000080040000C0040000401404E
:10158000004001400018004070B5044690F83C004F
:101590000025012817D0012684F83C60022084F839
:1015A0003D002068826822F0770222F47F42826048
:1015B0000868502838D00DDC20284FD005DC90B3C7
:1015C000102811D14AE0022070BD302846D04028B2
:1015D0000AD13BE060282FD070280DD0B0F5805F95
:1015E00003D0B0F5005F12D0012584F83D600020E3
:1015F00084F83C00284670BDCB68D1E90121206801
:1016000000F066FD2068816841F0770109E0CB6851
:10161000D1E90121206800F05BFD2068816841F478
:1016200080418160E1E719E0CA684968206800F0FC
:1016300061FD5021206806E0CA684968206800F012
:101640006AFD6021206800F04DFDCEE7CA68496858
:10165000206800F04FFD40212068F4E72268014631
:101660001046F0E770472DE9F04104460068C6686F
:1016700005694FF00007A90713D5B10711D5F91E69
:10168000016101202077206880698007204602D010
:10169000FFF7E8FF04E000F07EF8204600F07CF859
:1016A0002777680716D5700714D521686FF00400F6
:1016B0000861022020772068806910F4407F20466E
:1016C00002D0FFF7CFFF04E000F065F8204600F0FD
:1016D00063F82777280715D5300713D521686FF0F1
:1016E00008000861042020772068C0698007204630
:1016F00002D0FFF7B7FF04E000F04DF8204600F0FD
:101700004BF82777E80616D5F00614D521686FF058
:1017100010000861082020772068C06910F4407F1D
:10172000204602D0FFF79EFF04E000F034F8204688
:1017300000F032F82777E80708D0F00706D02168D4
:101740006FF001000861204600F028F8280608D54F
:10175000300606D521686FF0800008612046FFF74B
:101760003FFE680608D5700606D521686FF0400078
:101770000861204600F01CF8A8060AD5B00608D576
:1017800021686FF0200008612046BDE8F041FFF7B6
:1017900028BEBDE8F081704770470000006803492B
:1017A000884201D1FFF792BA704700000014004050
:1017B0007047704770470000F8B501680446086834
:1017C000CA684B6910F00F0F4FF0000559D003F0B5
:1017D000010602F49077374365D0C10705D0D105E3
:1017E00003D5616C41F001016164410705D5D9075A
:1017F00003D0616C41F002016164810705D5D9070E
:1018000003D0616C41F004016164010707D502F067
:101810002001314303D0616C41F008016164616CC7
:1018200000293AD0800604D5900602D5204600F063
:10183000B3FC20684069616CC0F38010090700D4D4
:1018400060B3204600F081FC20684069400621D545
:101850002068143050E8001F21F0400140E80012D9
:10186000002AF5D1E06BA8B16E490165E06BFFF786
:10187000F8F8002811D0E06B016D01B0BDE8F04030
:10188000084783060FD593060DD52046BDE8F840DE
:1018900000F082BC2046FFF78DFFF8BD2046FFF721
:1018A00089FF6564F8BD266B2023012E7DD1C60615
:1018B0007BD5D60679D508684868009048694FF00E
:1018C0000206400641D5E16B086840680004000C40
:1018D000E8D0A28D8242E5D9E085C869B0F5807F65
:1018E0002DD020680C3050E8001F21F4807140E8B2
:1018F0000012002AF5D12068143050E8001F21F0B2
:10190000010140E80012002AF5D12068143050E8A7
:10191000001F21F0400140E80012002AF5D184F8B0
:101920004230256320680C3050E8001F21F0100180
:1019300040E80012002AF5D1E06BFFF749F8666332
:10194000A08DE18D401A81B22AE0A08DE18D401A70
:1019500081B2E08D0028A5D00029A3D022680C32E6
:1019600052E8000F20F4907042E80007002FF5D1F4
:101970002068143050E8002F22F0010240E80027D0
:10198000002FF5D184F84230256320680C3050E8F0
:10199000002F22F0100240E80023002BF5D16663EF
:1019A0002046FFF706FFF8BDFFE705062BD5150615
:1019B00029D594F841002128F5D1A068B0F5805FC1
:1019C00001D12069B0B1206A411C216221680078F0
:1019D0004860E08C401E0004000CE084E3D12068E5
:1019E000C16821F08001C1602068C16841F04001F8
:1019F000C160D8E7206A0088C0F308004860206A08
:101A0000801C2062E5E74006CDD55006CBD5CA68DC
:101A1000204622F04002CA6084F8413000F0EBF822
:101A2000C1E700003B21000870B5040004D094F821
:101A30004100002510B106E0012070BD84F840503F
:101A4000204600F023F8242084F841002068C16873
:101A500021F40051C160204600F000FC20680169BB
:101A600021F4904101612068416921F02A0141611E
:101A70002068C16841F40051C1606564202084F889
:101A8000410084F842006563002070BD70B586B0E7
:101A9000044614216846FEF73FFC2A48284E256874
:101AA00000242849143802220323B54220D10D68AE
:101AB00045F010050D60096801F0100105910168FD
:101AC00041F0010101600068694600F001000590E5
:101AD00058028DE815000720CDE903301A48FEF7BB
:101AE000E5FF002205212520FFF788F9252022E0C7
:101AF000164EB54221D10D6845F020050D600968EC
:101B000001F020010591016841F0040101600068C5
:101B1000694600F004000590C0208DE815000820FB
:101B2000CDE903300A48FEF7C1FF00220621472015
:101B3000FFF764F94720FFF753F906B070BD0000C6
:101B400000100140443802400000024000140140EF
:101B50000008024070472DE9F843044690F8410020
:101B6000984616460D46202802D00220BDE8F8838C
:101B700085B17EB100206064212084F84100FFF728
:101B80009FF8A6848146E684A0682027B0F5805F90
:101B900002D003E00120E9E7206910B12E460025BC
:101BA0000EE000260CE08021204600F0DDFBA8B905
:101BB000C6B116F8010B21684860E08C401EE08435
:101BC000E08C4B464FF00002CDF800800028EAD1AF
:101BD0004FF04001204600F0C7FB40B184F841704F
:101BE0000320C3E735F8020BC0F30800E3E784F8ED
:101BF00041700020BAE77047FEE7000010B59CB0C6
:101C00001C2216496846FEF76EFB0021684601F06B
:101C1000D7F8134C11491C2220601C3107A8FEF78D
:101C200062FB002107A801F0CBF80C4960601C2280
:101C300038310EA8FEF757FB00210EA801F0C0F8BE
:101C40000649A0601C22543115A8FEF74CFB002168
:101C500015A801F0B5F8E0601CB010BD68380008A8
:101C6000000000202DE9F04F87B014216846FEF7F0
:101C700053FB4A48016841F010010160016801F01E
:101C800010010591016841F080010160016801F0D7
:101C900080010591016841F040010160016801F097
:101CA00040010591016841F002010160016801F005
:101CB00002010591016841F004010160016801F031
:101CC00004010591016841F001010160016801F022
:101CD00001010591016841F0080101600068DFF829
:101CE000C09000F008000590002220214846FEF731
:101CF000E2FFDFF8B0A0002203215046FEF7DBFF31
:101D00004FF44067012239464846FEF7D4FFDFF81A
:101D100098B04FF48068002241465846FEF7CBFF4A
:101D2000012203212148FEF7C6FF202001240225BD
:101D30008DE83100694648460395FEF7B7FE032655
:101D40000096CDE90145694650460395FEF7AEFE83
:101D5000CDE9007469464846CDE90245FEF7A6FE86
:101D6000CDF80080CDE90145694658460395FEF758
:101D70009DFEE00200900020CDE90104694658462E
:101D8000FEF794FECDE9006469460848CDE90245B6
:101D9000FEF78CFE07B0BDE8F08F0000303802403F
:101DA000001002400018024000040240000C0240F3
:101DB00010B586B000241648009401940294039450
:101DC00004944FF08041059401604721C0E901145B
:101DD00040F2D661C0E903148461FFF74BFB08B100
:101DE000FEF7F4FD4FF48050009069460848FFF775
:101DF000CBFB08B1FEF7EAFD049404A9044805945E
:101E0000FFF7F0FA002801D0FEF7E0FD06B010BDA4
:101E1000E802002010B50E4C0C480C2120604FF455
:101E2000E13060600020A060E060C4E90401A061CE
:101E3000E0612046FFF7F8FD08B1FEF7C7FD206816
:101E4000C16841F02001C16010BD000000100140D8
:101E5000F80300200C4810B50A4901604FF4E13145
:101E60004160002181600C22C160C0E904128161DF
:101E7000C161FFF7D9FD002803D0BDE81040FEF78F
:101E8000A5BD10BD0014014040040020FEE7FEE7A0
:101E900070B50D4D4FF4006421462846FEF7FEFE56
:101EA000002810D13220FEF7EFFD21462846FEF72C
:101EB000F5FE0028F9D02846BDE8704000224FF416
:101EC0008061FEF7F8BE70BD00040240FEF70CFD15
:101ED000C82000F069FFF9E7FEF734FD642000F048
:101EE00063FFF9E7074C4FF4FA7502212046FEF72D
:101EF000DAFE01212046FEF7D6FE284600F054FF08
:101F0000F3E70000000C0240FFF7C2FF142000F0CE
:101F10004BFFF9E710B5502080F31188BFF34F8FC6
:101F2000BFF36F8F01F0D8FB18B104494FF0805018
:101F30000860002080F3118810BD000004ED00E06F
:101F400030B593B030216846FEF7E6F914210CA8AD
:101F5000FEF7E2F91C480025016841F0805101605C
:101F6000006800F0805011901848016841F48041E9
:101F700001600068022400F480401190012000906C
:101F8000000401908001CDE9064008AA0420482100
:101F900082E813000B906846FFF76CF808B172B640
:101FA000FEE70CA90F2081E831004FF48050CDE905
:101FB0000F0502210CA8FEF753FF002801D072B6CE
:101FC000FEE713B030BD0000403802400070004012
:101FD0000248016841F470010160704788ED00E03B
:101FE0000148FFF740BB0000E80200200148FFF76E
:101FF0003ABB000088040020F0B50268294C2A4D45
:102000002A4E2B4F2B4B4FF0804CA04209D06045FD
:1020100007D0A84205D0B04203D0B84201D09842C0
:1020200004D122F0700E4A6842EA0E02A0421BD090
:10203000604519D0A84217D0B04215D0B84213D08D
:10204000984211D01C4DA8420ED01C4DA8420BD076
:102050001B4DA84208D01B4DA84205D01A4DA842DE
:1020600002D01A4DA84203D122F44075CA682A430F
:102070004D6922F080022A4302608A68C2620A68BF
:102080008262A04201D0984201D109690163012115
:1020900041610169C90703D0016921F001010161B2
:1020A000F0BD0000000001400004004000080040B6
:1020B000000C004000040140004001400044014089
:1020C0000048014000180040001C00400020004073
:1020D00010B5846842EA032224F47F440A43224371
:1020E000826010BD826822F070020A4342F007014C
:1020F0008160704710B5036A046A24F00104046229
:10210000846924F0F00444EA021423F00A020A432A
:102110008461026210BD10B5036A046A24F01004E1
:102120000462846923F0A00324F4704444EA023278
:1021300043EA01118261016210BD10B5806B00217C
:10214000C185C184FFF736FB10BD01680C3151E831
:10215000002F22F4907241E80023002BF5D1016892
:10216000143151E8002F22F0010241E80023002B36
:10217000F5D1016B012909D101680C3151E8002F1B
:1021800022F0100241E80023002BF5D1202180F835
:10219000421000210163704708B590F842102229CF
:1021A00001D0022008BD82684FF480539A4201D1C9
:1021B000016921B1816A9A421BD04AB10AE00268E2
:1021C000816A5268C2F308020A80816A891C08E0A9
:1021D000026972B10268526802F07F020A70816A75
:1021E000491C8162C18D491E0904090CC18503D0B7
:1021F0001BE002685268F1E70168CA6822F0200219
:10220000CA600168CA6822F48072CA6001684A69BB
:1022100022F001024A61202180F84210002141632E
:10222000026B012A03D0FFF795FC002008BD016373
:1022300001680C3151E8002F22F0100241E8002320
:10224000002BF5D101680A68D20602D50A684968F0
:102250000091818DFFF7ADFAE7E7000070B5044605
:1022600000680169E26821F440511143016121696C
:10227000A068E26908436169114308432168CA689C
:1022800049F20C639A430243CA6020684169A2691B
:1022900021F440711143416131492068884202D0E4
:1022A0003049884202D1FEF7A5FE01E0FEF792FE1A
:1022B000E2690023192164253226B2F5004F6268D5
:1022C00028D0A0FB0101930F9200FDF7DBFF014630
:1022D000B0FBF5F06FF01802504301EB800006EB05
:1022E0000010B0FBF5F000F0F002B1FBF5F002EBEE
:1022F0000012B1FBF5F06FF01803584301EB8000BA
:1023000006EB0010B0FBF5F000F00F002168104460
:10231000886070BDA0FB010192185B41FDF7B2FF20
:102320000146B0FBF5F00201B1FBF5F06FF01803C8
:10233000584301EB800006EBC000B0FBF5F000F065
:10234000F80002EB4002B1FBF5F0584301EB8000CE
:1023500006EBC000B0FBF5F000F00700D6E7000088
:1023600000100140001401402DE9F843984617463B
:102370000D460446089E24E0701C22D0FEF7A0FC07
:10238000A0EB0800B0421AD8CEB12068C168490756
:1023900017D5802D15D0402D13D00168C9430907EA
:1023A0000FD401680025406800902046FFF7CDFE5D
:1023B0000820606484F840500120BDE8F8830320C1
:1023C000FBE72068006835EA000004D00020B8422E
:1023D000D2D00020F1E70120F9E700000C480068A6
:1023E0000168C94389060CD440680121C0B2312874
:1023F00008D0322808D0372808D0382801D105481D
:10240000017070470448FBE70448F9E70448F7E720
:10241000F80300208B0000208800002089000020A5
:102420008A0000200148FFF7C7B9000040040020DF
:10243000FEE7000001B54FF47A73012269460248B5
:10244000FFF789FB08BD0000F80300200FB4084B1C
:1024500010B504A902AA039800F0EEF8044602A9F8
:10246000002000F06CFC204610BC5DF814FB00005E
:102470003F2D00080907090E002804DB00F1E020C9
:1024800080F80014704700F00F0000F1E02080F8A1
:10249000141D704702E008C8121F08C1002AFAD1B3
:1024A00070477047002001E001C1121F002AFBD1D4
:1024B000704700002DE9FF5F82B00021DDE90430A4
:1024C000020DDDF840B0034318D044F61050A2F2DC
:1024D000FF3242431514119801281FD0A5EB0B00C1
:1024E000401C5FEA000A4FF000064E4FDFF83891BB
:1024F000B046504615D5CAF1000413E011980124E6
:102500004AA3012801D16FEA0B010298119AC0E990
:102510000031C0E9024206B0BDE8F09FCBF10000F7
:10252000DFE704460021404A491842EB0450CDE958
:10253000001012E0E00707D032463B4640464946CD
:10254000FEF7ADF88046894632463B4610461946AE
:10255000FEF7A5F806460F466410002CEAD1DDE927
:102560000401DDE90023BAF1000F06DAFEF797F85F
:1025700042464B46FEF793F805E0FEF702F9424665
:102580004B46FEF7FEF804460E460022284BFEF7A7
:102590007FF903D84FF0FF30014607E00022254BBA
:1025A00020463146FDF7CAFEFEF75AF9102409E02D
:1025B000002C0ADB0A220023FDF764FE039B303265
:1025C0001A55641E50EA0102F2D1641C039AC4F148
:1025D00011031444119A012A03D0012208430DD19A
:1025E0000AE0084304D000204FF0110B119072E76D
:1025F000A3EB0B056D1E0DE05B4504DD4FF0000203
:1026000005F1010504E003DA4FF00002A5F1010530
:10261000002AECD002981199C0E90231C0E90045C6
:1026200079E70000000014400000F03F3000000097
:102630000000F0430000E03F2DE9FF4F95B09A46BF
:10264000884606460025EEE1252877D10024274656
:10265000F94A0121039400E0044316F8013F203BAE
:1026600001FA03F01042F7D130782A2811D06FF028
:102670002F033078A0F13002092A16D8039A44F0CB
:10268000020402EB820203EB42021044761C039028
:10269000EFE758F8042B0392002A03DA504244F47F
:1026A0000054039044F00204761C30782E2816D192
:1026B00016F8010F44F004042A280DD06FF02F0201
:1026C0003078A0F13003092B09D807EB870302EB20
:1026D0004303C718761CF3E758F8047B761C307860
:1026E0006C280FD006DC4C2817D068280DD06A283B
:1026F00014D104E0742810D07A280FD10DE044F4EE
:1027000000140AE044F4801401E044F440147278A8
:10271000824202D104F58014761C761C307866283B
:102720000BD013DC582877D009DC002875D0452859
:10273000F6D04628F4D047281AD193E118E0632850
:1027400035D0642879D0652812D18BE1702873D0F8
:1027500008DC6728F1D069286FD06E280DD06F286B
:1027600006D1ACE073282CD0752874D0782853D0CB
:102770005246179990476D1C54E1C4F30250022849
:1027800009D003280DD0D8F8001004280DD00D6012
:1027900008F1040846E1D8F80010EA17C1E9005230
:1027A000F6E7D8F800100D80F2E70D70F0E718F8A2
:1027B000041B8DF8001000208DF80100EB4601206D
:1027C00003E058F804BB4FF0FF3061074FF0000101
:1027D00002D40DE009F101018946B9420FDA8145C1
:1027E000F8DB1BF809100029F4D108E009F1010118
:1027F00089468142FADB1BF809100029F6D10398BB
:102800005346A0EB090721463846179A00F080FA94
:10281000284400EB090507E044E008E10DE01BF85F
:10282000010B524617999047B9F10109F7D2534667
:1028300021463846179AF2E039E00A21C4F30252E1
:102840004FF0000B0091022A06D058F8040BC11774
:10285000032A09D00AE023E008F1070020F007026C
:10286000F2E80201904605E000B2C117042A01D146
:1028700040B2C117002906DA0A460021404261EB46
:1028800002012D2202E0220504D52B228DF804201E
:10289000012203E0E20701D02022F7E7914657E04A
:1028A0000A2100E010214FF0000B00910BE01021F5
:1028B0004FF0000B44F004040827009103E00820C7
:1028C0004FF0000B0090C4F30252022A05D058F8D2
:1028D000040B0021032A08D008E008F1070020F0CB
:1028E0000702F2E80201904603E080B2042A00D118
:1028F000C0B24FF0000922072AD53278702A07D0DB
:10290000DDF800C08CF0100C5CEA0B0C05D00EE07A
:1029100040228DF80420012208E050EA010306D08D
:1029200030238DF804308DF8052002229146009B5B
:1029300083F0080353EA0B030AD150EA010201D1E4
:10294000620705D530228DF804204FF001097F1E63
:102950003278582A04D039A20C920CAA02920BE0C9
:102960003BA2F9E75B46009AFDF78CFC0C9B9B5C55
:10297000029A521E0292137050EA0102F2D102989A
:1029800004A9081A00F1200B600702D524F4803452
:1029900000E001275F4502DDA7EB0B0000E000200F
:1029A00000EB0B01009003984944401A0390E003A8
:1029B00006D453462146179A039800F0A9F9054416
:1029C000002706E001A85246C05D179990476D1C8C
:1029D0007F1C4F45F6DBE0030CD553462146179A82
:1029E000039800F095F9054404E030205246179909
:1029F00090476D1C0099481E00900029F5DC08E006
:102A00000298029952460078491C02911799904702
:102A10006D1CBBF10001ABF1010BF1DC5BE100F0DF
:102A200065F90544761C307800287FF40DAE19B0A6
:102A30002846BDE8F08F000009280100303132330C
:102A400034353637383961626364656600000000EA
:102A500030313233343536373839414243444546D4
:102A600000000000600700D4062708F1070020F0EE
:102A70000700F0E80223804603F0004C5FEA0C00F8
:102A800001D097A009E0200501D596A005E0E00758
:102A900001D095A001E0AFF24C001390307823F004
:102AA000004365280CD006DC452809D046281DD0F7
:102AB00047287FD13BE0662818D067287AD136E0D6
:102AC0000021112F01DB112000E0781CCDE900016D
:102AD00004A90CA8FFF7EEFCDDE90D010C9A4FF0FC
:102AE000000B07F10109109200914EE04FF00040F9
:102AF0000097CDE9011004A90CA8FFF7DBFCDDE984
:102B00000D020C9B0F994FF0000B91461093009211
:102B100011B9791C00EB0109B7EB090003D4C0F12E
:102B2000FF3B07F10109A9EB0700019042E0012FEB
:102B300000DA01270021112F01DD112000E03846C5
:102B4000CDE9000104A90CA8FFF7B4FCDDE90D01F3
:102B50000C9A00914FF0000BB946109221070FD448
:102B6000009A4A4503DA914601E0A9F10109B9F159
:102B7000010F05DD109AA9F10101515C3029F4D053
:102B8000B84202DA10F1040F03DA0121CDE9011095
:102B900010E0002803DC8344A9EB000102E0411CA3
:102BA000494500DD8946A0EB0B00401C01904FF029
:102BB00000400290200705D40198484502DB4FF001
:102BC000FF30019000208DF84B0002980DF14B076B
:102BD000B0F1004F25D002200C902B200D900298D0
:102BE00000280CDA404202902D200D9007E00A21C7
:102BF0000298FDF779FC3031029007F8011D0C991D
:102C0000481E0C900029F2DC02980028EFD1791EB2
:102C10000D980870307800F0200040F0450007F86B
:102C2000020D11A8C01BC01D02901398007800B1BE
:102C3000012000EB0901019801EBE07102980144C9
:102C40000398401A401E0390E00306D453462146E1
:102C5000179A039800F05CF805441398007818B1AF
:102C60005246179990476D1CE00323D553462146E1
:102C7000179A039800F04CF805441BE0BBF1000FD5
:102C800007DB0098584504DD1098179910F80B00E1
:102C900001E0179930205246904701980BF1010B43
:102CA000401E05F10105019004D12E2052461799CE
:102CB00090476D1CB9F10001A9F10109DEDC05E0C6
:102CC00017F8010B5246179990476D1C0299481E40
:102CD00002900029F4DC53462146179A03989EE699
:102CE0002D0000002B000000200000002DE9F04125
:102CF000044600251E461746880404D405E03946DC
:102D00002020B0476D1C641EF9D52846BDE8F0812F
:102D10002DE9F041044600251E469046C80301D522
:102D2000302700E02027880404D505E041463846D6
:102D3000B0476D1C641EF9D52846BDE8F0810A68CD
:102D4000531C0B6010707047FDF7C8FFFFF7F8F8D1
:102D5000FEF788FFFFF77EF8FFF72AF8FFF75AF82B
:102D6000012291020B48FDF7A6FF0B4C0122202106
:102D70002046FDF7A0FF4FF4FA70FDF785FE002214
:102D800020212046FDF797FFFEF738FF00F013F8EB
:102D9000FEE700000004024000100240014600204F
:102DA000842900D0C81C704710B500B9012000F07C
:102DB0002FFB002010BD10B500F050FB002010BD0F
:102DC0007FB50D4604464169B0F9080081B1A1699B
:102DD00071B1FFF7E3FFD4E905128DE80700D4E9EC
:102DE00000102B46226900F04CFC039004B070BD2B
:102DF000FFF7D4FF03A9CDE90001208A2B4682B258
:102E0000D4E9001000F010FC012801D00020EDE70B
:102E10000398EBE72DE9F041184C0F460546E668AC
:102E20002068001D00F02DFA38B9206890F82C10A9
:102E300001208840216981432161681C07D137B195
:102E40002168BDE8F0410E48091D00F05DBA206818
:102E50003544B5424560216805D2A06BBDE8F0411C
:102E6000091D00F039BA606B091D00F035FAA06A3F
:102E7000854200D2A562BDE8F0810000200000205C
:102E8000AC0500202DE9F041054600F049FA2E4C32
:102E9000A068401CA06020682C4F10B1606940B34E
:102EA0002DE02560A068012829D1002606EB8600C8
:102EB00007EB800000F002FA761C072EF6D32348B9
:102EC0008C3000F0FBF92148A03000F0F7F91F48E2
:102ED000B43000F0F3F91D48C83000F0EFF91B489A
:102EE000DC3000F0EBF919488C3060631430A063DB
:102EF00005E02068E96AC06A884200D82560606AF7
:102F0000401C6062E96A0120226988401043206108
:102F100001EB810007EB8000291D00F0F5F900F0BE
:102F20001FFA606900280CD02068E96AC06A8842EC
:102F300007D207494FF080500860BFF34F8FBFF3AF
:102F40006F8FBDE8F081000020000020D004002039
:102F500004ED00E010B5044690F8510058B1012886
:102F60000CD002280FD0502080F31188BFF34F8F70
:102F7000BFF36F8FFEE7206B00F006FA2046BDE836
:102F8000104000F001BA10BD10484FF470514207D4
:102F900006D0C01D0D4920F00700411AC1F570513F
:102FA0000B4A00230144C2E900030839183A21F012
:102FB000070111604B600B600B1AC0E900139360AE
:102FC0004FF000405360506170470000C005002082
:102FD00074000020144E154CA6F1C8074FF080581D
:102FE000DFF84C9012E000BF00F09AF9F068C56875
:102FF000281D00F046F9A068401EA0606068401ED1
:10300000606000F0ADF92846FFF7A4FF6068002873
:10301000EAD138680128F9D9C9F80080BFF34F8F89
:10302000BFF36F8FF2E7000098050020200000201A
:1030300004ED00E02DE9F0479A46DDE90984814678
:103040006FF00303206B03EB82021044089E20F014
:103050000707780707D0502080F31188BFF34F8F00
:10306000BFF36F8FFEE7002561B1002023180A5CD3
:1030700083F834200A5C12B1401C1028F6D384F87F
:10308000435001E084F83450072E00D30626E66250
:10309000C4E91165201D00F01CF904F1180000F0CE
:1030A00018F92461C6F107006462A061E56484F840
:1030B000505052464946384600F0C0F82060B8F1FA
:1030C000000F01D0C8F80040BDE8F08730B51149C5
:1030D00000E011460A688242FBD34B685C188442C8
:1030E00003D1406818444860084643681C1894425D
:1030F00009D1084C183C2468A24209D052681A44ED
:1031000042600A6812680260814200D0086030BDE7
:103110000460F9E7740000200648416B096829B192
:10312000416BC968C9684968816270474FF0FF31D7
:10313000FAE700002000002008484068401C4FF0DB
:10314000500080F3118804D0BFF34F8FBFF36F8F0F
:10315000FEE7BFF34F8FBFF36F8FFEE77C000020C9
:103160002DE9F0410546002700F0AEF9324E3068F7
:1031700008B9FFF709FF706905424ED1C5B308359C
:1031800068070ED005F00700C0F108000544680785
:1031900007D0502080F31188BFF34F8FBFF36F8F9C
:1031A000FEE72DB37068854237D8234818300146B2
:1031B0000C6801E020460C466168A94202D22168F1
:1031C0000029F7D131688C4227D007682168016057
:1031D00060680837411B10290FD96019420708D0D1
:1031E000502080F31188BFF34F8FBFF36F8FFEE73E
:1031F00013E041606560FFF769FF61687068401A1D
:103200007060B268904200D2B060706901430020E3
:10321000C4E90001F068401CF06000F0C3FA7807D0
:1032200007D0502080F31188BFF34F8FBFF36F8F0B
:10323000FEE73846BDE8F0815C00002010B5031FB2
:103240004FF080741C601B1F21F001011960191FD1
:10325000044B0B6014390A60091F6FF002024438F6
:103260000A6010BD3931000870B50D4606460024CD
:1032700004E0305DFFF7DEF8641CA4B2AC42F8D382
:1032800070BDD0E9013201699A60D0E901235A602A
:103290004A68824201D182684A600022026108685D
:1032A000401E086008687047034B036003F1540038
:1032B00008608020106070479400002000F1080131
:1032C0004FF0FF32C0E90112C160016100210160CD
:1032D000704700210161704730B50B685A1C02D05D
:1032E00000F1080202E0026904E022465468256801
:1032F0009D42FAD953684B6099608A6051600861B9
:103300000168491C016030BD42684A6093688B6067
:1033100093685960916008610168491C01607047B9
:10332000502080F31188BFF34F8FBFF36F8F0A498E
:103330004868401C486001280CD10848006810F01B
:10334000FF0F07D0502080F31188BFF34F8FBFF3DA
:103350006F8FFEE7704700007C00002004ED00E066
:103360000849486828B1401E486001D180F311889F
:103370007047502080F31188BFF34F8FBFF36F8FDA
:10338000FEE700007C00002070B500282AD0164D12
:10339000A0F1080460686969084207D1502080F3F1
:1033A0001188BFF34F8FBFF36F8FFEE722683AB1EA
:1033B000502080F31188BFF34F8FBFF36F8FFEE76C
:1033C0008843606000F080F860686968084468605D
:1033D0002046FFF77BFE2869401C2861BDE870404D
:1033E00000F0E0B970BD00005C0000204FF0E0206C
:1033F00000210161816105494FF47A720968B1FBCE
:10340000F2F1491E41610721016170471C00002053
:1034100010B5020014D00F48006B38B1502080F373
:103420001188BFF34F8FBFF36F8FFEE700F04CF8AA
:1034300000211046FFF7EEFC00F0B4F9002807D198
:1034400005494FF080500860BFF34F8FBFF36F8F77
:1034500010BD00002000002004ED00E010B586B093
:103460000024039405AA04A903A80494FFF71CFFF1
:10347000DDE903010094CDE9011000230EA11048FD
:10348000059A00F0FEF80F490028C86211D05020BC
:1034900080F31188BFF34F8FBFF36F8F4FF0FF3072
:1034A000886201204861CC6006B0BDE8104000F0A1
:1034B00041B806B010BD000049444C450000000072
:1034C000D52F0008200000200248016B491C016331
:1034D00070470000200000201448016B11B1012149
:1034E000C16170470021C1610169B1FA81F1C1F187
:1034F0001F0101EB81020E4951F822306BB101EB43
:10350000820101F108034A6852684A609A4201D177
:1035100052684A60D16801607047502080F311887A
:10352000BFF34F8FBFF36F8FFEE700002000002036
:10353000D00400201CB537480168374A914207D1B2
:10354000502080F31188BFF34F8FBFF36F8FFEE7DA
:1035500000683149491E884207D1502080F3118804
:10356000BFF34F8FBFF36F8FFEE72C4908780190B0
:10357000FF20087008788DF800009DF800009DF885
:10358000002000F0F000904207D0502080F3118816
:10359000BFF34F8FBFF36F8FFEE79DF80000204C05
:1035A00000F0500020700720A06005E09DF800208A
:1035B00052008DF80020401E9DF800201206F5D420
:1035C000A060032807D0502080F31188BFF34F8FED
:1035D000BFF36F8FFEE74FF44070A0600198087052
:1035E0000C482030016841F470010160016841F02D
:1035F00070410160FFF7FAFE00206060FCF7F4FD07
:103600000848016841F040410160FCF7D9FD002005
:103610001CBD000000ED00E071C20F4100E400E0BD
:103620007C00002034EF00E02DE9FF5F8346DDE9F8
:103630000E87994616468A469000FFF791FD0500D1
:103640001CD05420FFF78CFD040014D0002025630B
:1036500084F85100CDE90240CDE900874B4632465F
:1036600051465846FFF7E6FC2046FFF70BFC0120C9
:1036700004B0BDE8F09F2846FFF786FE4FF0FF300C
:10368000F6E7F0B585B0DDE90B640A9DA6B1DCB1C3
:10369000542700972663022684F85160002604AF61
:1036A000CDE90246CDE90057FFF7C4FC2046FFF7FD
:1036B000E9FB049805B0F0BD502080F31188BFF3FA
:1036C0004F8FBFF36F8FFEE7502080F31188BFF359
:1036D0004F8FBFF36F8FFEE72DE9F0412F4C00268F
:1036E000206B28B1A069401CA0613046BDE8F08184
:1036F000E5686D1CE56013D1606B006838B150203F
:1037000080F31188BFF34F8FBFF36F8FFEE7606BBD
:10371000A16B6163A063206A401C2062FFF7FCFC80
:10372000A06ADFF87C80854209D3606B0068A0B195
:10373000606BC068C7687868854211D2A062206853
:10374000C06A00EB800158F82100012800D9012649
:10375000E0690028C9D00126C7E74FF0FF30EDE748
:10376000381DFFF78EFDB86A18B107F11800FFF792
:1037700088FDF96A0120226988401043206101EB2D
:10378000810108EB8100391DFFF7BEFDF86A216851
:10379000C96A8842C9D30126C7E70000200000207B
:1037A000D00400202DE9F0472C4D00242746286B3B
:1037B00038B1FFF7B5FD286B401E2863286B40B178
:1037C00046E0502080F31188BFF34F8FBFF36F8F17
:1037D000FEE7A968224E0120D1B3A6F1B4098046C4
:1037E0003068E8B1F068C46804F11800FFF749FDDB
:1037F000201DFFF746FDE06A2A6908FA00F111432F
:10380000296100EB800109EB8100211DFFF77CFDA0
:10381000E06A2968C96A8842E2D3C5F81C80DFE7FC
:103820000CB1FFF779FCAC6944B14646FFF754FF91
:1038300000B1EE61641EF9D10020A861E86938B1D9
:103840000849012738070860BFF34F8FBFF36F8F18
:10385000FFF786FD3846BDE8F08700002000002015
:103860008405002004ED00E000390008E51E000892
:10387000FFFF0000000000008000000000000000CA
:10388000000000000C390008091F000800000000BB
:1038900000000000800000000000000000000000A8
:1038A000F0380008D91E0008FFFF000000000000EB
:1038B000800000000000000000000000183900082F
:1038C000CD1E0008FFFF0000000000008000000087
:1038D00000000000000000000000000000000000E8
:1038E00001020304060708090000000001020304A6
:1038F000446973706C61795F74656D7065726100A5
:103900004C45445F5461736B000000005057525F98
:103910005461736B00000000436F6E74726F6C5FD4
:1039200066616E5F54617300483900080000002032
:103930009400000094240008DC3900089400002062
:1039400094450000A42400080000000000000000CE
:103950000000000000000000010000001000000056
:10396000000000000024F40000000000000000003F
:103970000000000000000000000000000000000047
:103980000000000000000000000000000000000037
:103990000000000000000000000000000000000027
:1039A0000000000000000000000000000000000017
:1039B0000000000000000000000000000000000007
:1039C0000000000000000000AAAAAAAA000000004F
:0C39D00000000000000000000000803F2C
:040000050800018965
:00000001FF
